:020000040808EA
:1000000000000808582F0808000006000A00050133
:080010000402350800000000A5
:04001800E02A0808CA
:10001C0009480A4908B5884205D0094A824202D0EB
:10002C00121A02F027FC0748074A0021121A02F0A4
:10003C0049FC064808BD00BF00000020B42E08088B
:10004C007800002078000020000700200007002026
:10005C0070B502F0D5FA0025054E064CA41BA40879
:10006C00A54200D170BD56F8043B98470135F7E71F
:10007C00802E0808AC2E080800F05CB908B500F01A
:10008C0079F9BDE8084002F07DBA00F01BBC00F025
:10009C0019BC00F01FBC000000210C2008B5024A5E
:1000AC0000F064FBFEE700BF790508080078B0FAA1
:1000BC0080F0400970470123037070477047006A55
:1000CC000368DB681847000010B50446094B036051
:1000DC0001F066F8214601F077FA02F0ABF902F074
:1000EC008FF92046044B40F8043B01F05BF92046A5
:1000FC0010BD00BF342B08081C2B080810B5044693
:10010C00FFF7E2FF2046242102F09FFB204610BDA2
:10011C0070B51426D0E90053044606FB0356AE42D4
:10012C0004D0284601F0D1FF1435F8E7206800F020
:10013C00D1FB204670BD2DE9F843B1F1000807460C
:10014C0035DD4FF0140909FB08F000F0BBFB054648
:10015C00A8B3D7E90046844209FB064615D286426D
:10016C0014D9143EA4F11409341B0444B1451FD016
:10017C002CB13146204602F022F8337C23743046F1
:10018C0001F0A3FF143E143CF0E711D0A946A6429F
:10019C000ED02146484602F012F8237C204689F8FE
:1001AC00103001F092FF143409F11409EFE7002527
:1001BC00386800F08FFB01203D60C7F80880BDE86F
:1001CC00F88300232DE9F041C0E9003383600D462C
:1001DC0049680446994217DDFFF7ADFFA0B1D5E998
:1001EC0000634FF0140808FB03682768B04509D07A
:1001FC002FB13146384601F0FCFF337C3B7414368A
:10020C001437F3E76B6863602046BDE8F0810000AB
:10021C0070B53A4B9CB01C7839490DA801F09FFF82
:10022C00384912A88DF8444001F099FF1E23364935
:10023C0017A88DF8583001F092FF28238DF86C30F8
:10024C000023032101A8CDE901330393FFF773FFCA
:10025C0088B1019C0DAD04F13C062CB12946204619
:10026C0001F0C7FF2B7C23741434B44205F1140540
:10027C00F3D10323029302F0DDF8054601A904A88B
:10028C00FFF79FFF04A907A8204CFFF79AFF204B0C
:10029C0007A923600AA8FFF794FF0AAA1E21201DB4
:1002AC0001F0E4FA0AA8FFF733FF07A8FFF730FFC5
:1002BC00184B2562236004A8FFF72AFF164B236016
:1002CC0002F0B8F84FF4165102F096F800F068FFFF
:1002DC00214601F05EFA01A8FFF71AFF17A801F0FA
:1002EC00F4FE12A801F0F1FE0DA801F0EEFE20467E
:1002FC000A4A0B4902F0A4FA1CB070BD00000020A1
:10030C00F42A0808F82A0808082B08087C000020A2
:10031C001C2B08086C2C0808342B080878000020CB
:10032C00D500080810B50446006808B100F0D2FAF0
:10033C00204610BD07B50C4B0121188802F0F8F9C6
:10034C004FF47A7000F0E6FA0023084900931E205F
:10035C000623074A096800F011FA4FF47A7003B0CB
:10036C005DF804EB00F0D6BA04000020180200205F
:10037C00442B080807B50C4B197881F00101197052
:10038C000A4B188802F0E5F90023094900931E2056
:10039C000723084A096800F0F1F94FF4FA6003B03A
:1003AC005DF804EB00F0B6BAAC00002004000020AD
:1003BC00180200204B2B080810B502F053F900234B
:1003CC0043F248111A4602F055F902F04BF900239A
:1003DC0010211A4602F056F90023084C0320236022
:1003EC00A380A371A3F58033A36000F0DFF920464E
:1003FC00BDE81040024A034902F022BAA0000020D6
:10040C007800002031030808704710B50446142109
:10041C0002F01BFA204610BD10B50D4C2378BFF32B
:10042C005B8FDB0711D42046FFF740FE68B101213A
:10043C00084A094B094801F043FF2046FFF73BFEF1
:10044C00074A0849054802F0FBF9044810BD00BFF3
:10045C00B0000020B400002038010020C0010020B2
:10046C00780000201504080810B5FFF7D5FF074BDE
:10047C00044653B101F044FF38B1236820461B6990
:10048C009847002801DDAFF3008010BD000000008C
:10049C0038B5046805467CB16368013B63605BB9A1
:1004AC00236820469B689847A368013BA3601BB94F
:1004BC0023682046DB689847284638BD0122034B49
:1004CC001A700822024B1A70704700BFBC01002042
:1004DC00BD01002007B5064B064A01A81A6000F0C2
:1004EC0015F8019A044B1A6003B05DF804FB00BFC9
:1004FC00D8010020082B0808D401002008B5024BB5
:10050C001B68DB6B019308BD2000060808B5024B85
:10051C001B681B6B019308BDD001040808B5024B86
:10052C001B685B6C019308BDD001040808B5024B35
:10053C001B689B6C019308BDD001040808B5024BE5
:10054C001B68DB6C019308BDD001040808B5024B95
:10055C001B685B6D019308BDD001040808B5024B04
:10056C001B685B68019308BD9C01040808B5024B2D
:10057C001B68DB68019308BD9C01040808B5024B9D
:10058C001B685B69019308BD9C01040808B5024B0C
:10059C001B689B68019308BDB001040808B5024BA9
:1005AC001B68DB68019308BDB001040808B5024B59
:1005BC001B681B69019308BDB001040808B5024B08
:1005CC001B681B6A019308BDAC01040808B5024BFB
:1005DC001B685B6A019308BDAC01040808B5024BAB
:1005EC001B689B6A019308BDAC01040808B5024B5B
:1005FC001B68DB6A019308BDAC01040808B5024B0B
:10060C001B681B6B019308BDAC01040808B5024BB9
:10061C001B685B6B019308BDAC01040808B5024B69
:10062C001B681B6C019308BDAC01040808B5024B98
:10063C001B68DB69019308BDB401040808B5024BC3
:10064C001B681B6A019308BDB401040808B5024B72
:10065C001B689B69019308BDC401040808B5024BD3
:10066C001B681B6A019308BDC401040808B5024B42
:10067C001B685B6A019308BDC401040808B5024BF2
:10068C001B689B6A019308BDC401040808B5024BA2
:10069C001B68DB6A019308BDC401040808B5024B52
:1006AC001B681B6B019308BDC401040808B5024B01
:1006BC001B685B6B019308BDC401040808B5024BB1
:1006CC001B689B6B019308BDC401040808B5024B61
:1006DC001B681B6C019308BDC401040808B5024BD0
:1006EC001B68DB6C019308BDC401040808B5024B00
:1006FC001B681B68019308BD1C00060808B5024B5B
:10070C001B685B68019308BD1C00060808B5024B0A
:10071C001B689B68019308BD1C00060808B5024BBA
:10072C001B681B69019308BD1C00060808B5024B29
:10073C001B685B69019308BD1C00060808B5024BD9
:10074C001B689B69019308BD1C00060808B5024B89
:10075C001B68DB69019308BD1C00060808B5024B39
:10076C001B681B6A019308BD1C00060808B5024BE8
:10077C001B685B6B019308BDA001020808B5024B16
:10078C001B689B6D019308BDA001020808B5024BC4
:10079C001B68DB6E019308BDA001020808B5024B73
:1007AC001B681B6F019308BDA001020808B5024B22
:1007BC001B685B68019308BDA401040808B5024BD3
:1007CC001B685B69019308BDA401040808B5034BC1
:1007DC001B68D3F89030019308BD0000A4010408F5
:1007EC0008B5034B1B68D3F89C30019308BD00007F
:1007FC00A401040808B5024B1B68DB6B019308BD10
:10080C00CC01040808B5024B1B685B68019308BD5A
:10081C00C801040808B5024B1B689B68019308BD0E
:10082C00C801040808B5024B1B68DB68019308BDBE
:10083C00C801040808B5024B1B681B69019308BD6D
:10084C00C801040808B5024B1B685B69019308BD1D
:10085C00C801040808B5024B1B689B69019308BDCD
:10086C00C801040808B5024B1B68DB69019308BD7D
:10087C00C801040808B5024B1B681B6A019308BD2C
:10088C00C801040808B5024B1B681B6B019308BD1B
:10089C00C801040808B5024B1B685B6B019308BDCB
:1008AC00C801040808B5024B1B681B6C019308BDFA
:1008BC00C801040808B5024B1B685B6C019308BDAA
:1008CC00C801040808B5024B1B681B68019308BDDE
:1008DC00A001040808B5024B1B685B68019308BDB6
:1008EC00A001040808B5024B1B689B68019308BD66
:1008FC00A001040808B5024B1B685B6A019308BD94
:10090C00A001040808B5024B1B685B6C019308BD81
:10091C00A00104080021FFF751BF002240681146D6
:10092C00FFF788BFF0B5002685B0044610460F4689
:10093C001546039602F01BF87B6881B20096284698
:10094C0003AAFFF7DBFD30B13146204600F0D0F8AA
:10095C00204605B0F0BD204603A900F0C1F8F7E72A
:10096C00002240681146FFF785BF002240681146FF
:10097C00FFF790BF00224068FFF784BF0022406859
:10098C0081F00101FFF76EBF002340681A4619463B
:10099C00FFF760BF002340681A461946FFF752BFA5
:1009AC00002240681146FFF735BF00220221406843
:1009BC00FFF738BF002340681A46FFF723BF00003B
:1009CC0010B52824074B22461846002101F07AFF67
:1009DC004FF0FF3242600422034B04805A60034AFA
:1009EC001A6010BDE4010020DC0100205C2B08081B
:1009FC0010B58368044613B103220146984720467C
:100A0C0010BD0B68036013B15A6801325A6070470D
:100A1C007047F8B5064615460C468F18BC4206D0F2
:100A2C00336830469B6814F8011B9847F6E7284654
:100A3C00F8BD0022007CFFF7C1BD0021007CFFF750
:100A4C00C5BD0021007CFFF7C9BD0021007CFFF76C
:100A5C00CDBD0021007CFFF7D1BD10B5044614219B
:100A6C0001F0F3FE204610BD10B54FF47A73044626
:100A7C0008460021C4E90113034B1146236020747E
:100A8C00FFF7CCFD204610BD982B0808704710B519
:100A9C000446082101F0D9FE204610BDF8B50E46DB
:100AAC00002400F10807051D17F8011D0A22304625
:100ABC0001F099FAAF42044401D12046F8BD002C54
:100ACC00F2D02E21304601F07FFA0444ECE700000E
:100ADC00024A026000224260704700BFC02B080827
:100AEC00024A02600A684260704700BFC02B0808C7
:100AFC00014AC0E900217047C02B080810B59DF8C9
:100B0C00084044EA032444EA024444EA0164446091
:100B1C0010BD000037B5044D05609DF818500095C8
:100B2C00FFF7ECFF03B030BDC02B0808012200F129
:100B3C00100313F8101C1846012908D153F8041C93
:100B4C0002EB4102013A03F11003F2D17047022982
:100B5C0004BF53F8041C5218F4E70EB42DE9F0410D
:100B6C0087B000AF07F1340555F8048B04462B46CB
:100B7C004246102107F108007D60FFF7BBFE0F28ED
:100B8C001BD900F1080323F007036E46ADEB030DF0
:100B9C004246411C2B4668467D60FFF7ABFE021EA9
:100BAC0004DD2368694620469B689847B5461C3788
:100BBC00BD46BDE8F04103B070470028F7D023686C
:100BCC0002469B68204607F108019847EFE710B5ED
:100BDC00044603689B689847A368013BA3602BB944
:100BEC0023682046BDE81040DB68184710BD07B5E8
:100BFC0003688DF8071001229B680DF107019847D7
:100C0C0003B05DF804FB38B50B68044603604D680F
:100C1C0043689D420CD015B16B6801336B60606802
:100C2C0028B14368013B43600BB9FFF7D0FF656007
:100C3C00204638BD0B461146002210B50446C0E9CB
:100C4C00002283600BB9204610BDFFF7DCFFFAE7EA
:100C5C000346806820B30278032A1AD8DFE802F032
:100C6C000417021B052070471B685A684368D05C48
:100C7C002D2812D0A0F13003092B0ED974280ED0D8
:100C8C0066280CD0A0F16E035842584170470620DC
:100C9C0070470020704704207047032070470220E3
:100CAC00704710B50446FFF7D3FF02280ED0C31EC1
:100CBC00DBB2012B14D82268A36850685B680A2247
:100CCC00BDE810400021184401F0FABE2268A36868
:100CDC0052685B68D05CA0F174035842584110BD57
:100CEC000020FCE70B461146002210B50446C0E973
:100CFC0000220D48C4E90202A3B11A78032A06D0D7
:100D0C0082B90A6850685A68825C6E2A07D00A68F1
:100D1C00586852689B6802441B1AA260E360204624
:100D2C00FFF771FF204610BD312C080838B500259F
:100D3C000B4604461146C0E90055C0E90255C0E90E
:100D4C0004554BB11A78012A06D103F11002DB6865
:100D5C0082604361FFF757FF204638BD10B54369E9
:100D6C00044663B18068013BE0601030A0602061F4
:100D7C00636113B1FFF7DAFEA060012000E01846B2
:100D8C0010BD10B57D210446FFF731FF012320462D
:100D9C00237110BD08B50379012B02D0022B04D0AE
:100DAC0008BD2C21FFF723FFFAE73A21FAE710B52B
:100DBC000446FFF7EFFF20467B21FFF718FF0023C7
:100DCC002046237110BD000038B504460D46FFF7D0
:100DDC00E1FF236820462A46DB6803499847012334
:100DEC002046237138BD00BFCC2B080838B504460B
:100DFC000D46FFF7CFFF236820462A46DB680349E0
:100E0C00984701232046237138BD00BFCF2B08081B
:100E1C002DE9F0410D46174622210446FFF7E7FE67
:100E2C002946DFF898802F44BD422A4638D015F861
:100E3C00016B222E03D05C2E01D01F2EF4D8236818
:100E4C00521A20469B6898475C212046FFF7CFFE3C
:100E5C000D2E0AD8072E1CD9A6F10803052B18D87D
:100E6C00DFE803F00D0F11171315222E01D05C2EA5
:100E7C000FD131462046FFF7BAFE2946D4E762214E
:100E8C00F8E77421F6E76E21F4E76621F2E77221A8
:100E9C00F0E72368324641462046DB689847ECE78A
:100EAC008D4204D0236820469B686A1A98472221F9
:100EBC002046FFF79CFEBDE8F08100BFD22B08084E
:100ECC0070B504460D461646FFF764FF20463246C1
:100EDC002946FFF79DFF02232046237170BD70B594
:100EEC0004460D461646FFF755FF20463246294666
:100EFC00FFF78EFF01232046237170BD80680368C5
:100F0C00DB6818477047084611B10B685B681847D7
:100F1C00704770477047704738B504460D460068F7
:100F2C002E2101F008FD23680246C01A286020B16A
:100F3C00137803B101322068226038BD10B5044625
:100F4C000C2101F082FC204610BD10B50446042192
:100F5C0001F07BFC204610BD10B50446042101F0C5
:100F6C0074FC204610BD08B501F0EFFCB0FA80F01F
:100F7C00400908BD10B50C4601F05CFA844205D15D
:100F8C0001F058FABDE8104001F03ABA01F090FABD
:100F9C00844202D101F08CFAF4E701F0B5F98442F5
:100FAC0005D101F0B1F9BDE8104001F0A6B92CB1A2
:100FBC0023682046BDE810405B68184710BD38B563
:100FCC00054608460C4601F0D2FC2146024628464E
:100FDC00BDE83840FFF783BF70B5044608460D46A0
:100FEC0001F0C5FC2368024629462046BDE8704046
:100FFC00DB68184707B503688DF807100122DB681A
:10100C000DF10701984703B05DF804FB0EB403B56E
:10101C0003AB53F8042B0021006A019301F000F894
:10102C0002B05DF804EB03B0704700002DE9F74FF8
:10103C004FF01408D0E9009517464C4608FB05F50F
:10104C000093AB10174D5D43002D23DD6E1008FB94
:10105C0006F004EB000ABAF804B03A465F4528BF24
:10106C005A462058019101F08AFC0123019978B964
:10107C005F4503D1009A13703546E5E78CBF01201C
:10108C0000200028F8D0AE1B0AF11404013EF3E74F
:10109C00C00FF6E7A4EB09040248A410604303B0A8
:1010AC00BDE8F08FCDCCCCCC7FB50369067E019129
:1010BC0003B3F9B1002500F10C04039503A901A8B1
:1010CC00FFF72AFF0146A8B10DF10B032046039A46
:1010DC008DF80B50FFF7AAFF9DF80B3053B114237A
:1010EC00246803FB0044B4F906300834002BA8BF75
:1010FC00DEB2E3E7304604B070BD000010B50A4C18
:10110C002378BFF35B8FDB070BD42046FEF7CEFFB3
:10111C0038B12046FEF7CFFF044A0549054801F0D7
:10112C008FFB044810BD00BF100200207800002087
:10113C00210F08080800002010B50A4C2378BFF3D3
:10114C005B8FDB070BD42046FEF7B0FF38B120468F
:10115C00FEF7B1FF044A0549054801F071FB04484C
:10116C0010BD00BF14020020780000201F0F0808DB
:10117C000C00002038B500250446C0E90055C0E934
:10118C0004558560856140F8245FFFF7C7F9FFF7C8
:10119C00B5FFE061FFF7D0FF25732062204638BD14
:1011AC0010B50B4C2378BFF35B8FDB070ED42046B6
:1011BC00FEF77CFF50B10748FFF7DCFF2046FEF737
:1011CC007AFF054A0549034801F03AFB014810BD76
:1011DC000C0200201C020020780000205F1608087A
:1011EC000023024A02490348FFF7D8BA3D15080804
:1011FC00C91408084914080800231A461946184649
:10120C00FFF7CCBA37B504460D6951F8043B01A879
:10121C000093FFF7F6FB6A4629462046FFF70AFDC6
:10122C0001A8FFF735F9204603B030BD37B50446A9
:10123C008D6851F8043B01A80093FFF7E2FB6A4666
:10124C0029462046FFF772FD01A8FFF721F9204639
:10125C0003B030BD37B50446CD6851F8043B01A846
:10126C000093FFF7CEFB6A4629462046FFF73AFD6E
:10127C0001A8FFF70DF9204603B030BD70B58AB058
:10128C000D46014604A8FFF7D1FF144E04A8FFF742
:10129C0065FDE8B1684604A9FFF7DCFF314602980A
:1012AC00FFF761FE044610B12C1E18BF012401A8E3
:1012BC00FFF7EEF8002CE9D0684604A9FFF7A2FF6F
:1012CC006846FFF7EEFC286001A8FFF7E1F8DDE7C0
:1012DC0005A8FFF7DDF80AB070BD00BFD82B0808D1
:1012EC0037B50C4619492046154601F02EFB48B976
:1012FC0001F0A0F84FF4165101F07EF801F09AF8C5
:10130C0003B030BD2046124901F01FFB40B901F07B
:10131C00CFF84FF4165101F06FF801F0C9F8EFE770
:10132C0020460C4901F011FB70B94FF4165301A97A
:10133C0028460193FFF7A2FF00F0E6FF019900F0A9
:10134C00D9FF00F0E1FFDBE70020D9E7DD2B08082F
:10135C00E42B0808E72B080870B51426D0E90053D5
:10136C00044606FB0356AE4205D005F10800FFF714
:10137C00F3FF1435F7E72068FFF7ACFA204670BD91
:10138C0070B50446D0E9005305EB0316AE4204D009
:10139C00284600F09AFE1035F8E72068FFF79AFA15
:1013AC00204670BD10B504460C30FFF7D5FF204623
:1013BC00FFF7E6FF204610BD10B50446034B40F87E
:1013CC00043BFFF7EFFF204610BD00BF1C2B0808A5
:1013DC0010B50446FFF7F0FF2046242101F035FA42
:1013EC00204610BD10B50446024B0360FFF7E4FF26
:1013FC00204610BD842C080810B50446FFF7F2FFF8
:10140C002046242101F021FA204610BD0022C0E91B
:10141C000022826010B50C680A6004604C684A6057
:10142C0044608C688A60846010BD10B50446036803
:10143C001868FFF78BF8204610BD00002DE9F04F1F
:10144C0087B003931C4B80465B688946C3F3080343
:10145C0016466BB9FFF7A4FE044600F12403406A5C
:10146C000593FFF76BF8237B2BB105A8FFF7DDFF86
:10147C0007B0BDE8F08F01235FFA89F92373D4E933
:10148C00005305EB830AAA4512D055F8047B31466C
:10149C00381DFFF709FE8145F5D3039A3B6800928E
:1014AC00D3F808B04A46334641463846D847EAE7AF
:1014BC0000232373D9E700BF00ED00E02DE9F74FBF
:1014CC009B461A4B80465B688946C3F30803164655
:1014DC006BB9FFF765FE044600F12403406A0193E3
:1014EC00FFF72CF8237B2BB101A8FFF79EFF03B06D
:1014FC00BDE8F08F0123F6B22373D4E9005305EB5A
:10150C00830A55450ED055F8047B5946381DFFF714
:10151C00CBFD8642F5D33B684A4641463846DB68EC
:10152C009847EEE700232373DEE700BF00ED00E0F1
:10153C002DE9F341164B05465B680F46C3F30803D0
:10154C001BBBFFF72DFE044600F12403406A0193F8
:10155C00FEF7F4FFD4E90063462406EB8308B0459C
:10156C0009D101A8FFF761FFA542B4BF00200120FB
:10157C0002B0BDE8F08156F8040B39460430FFF791
:10158C0093FD8442A8BF0446E9E70020F0E700BFC2
:10159C0000ED00E00B4670B5044605C800EB820276
:1015AC00824207D001461D6851F8046BAE4203D04D
:1015BC000846F5E7002070BD521A01F069F963681E
:1015CC000120013B6360F6E71FB5044600F12403DC
:1015DC00406A01910393FEF7B1FF204601A9FFF782
:1015EC00D9FF18B163680BB9FFF706FE03A8FFF724
:1015FC001CFF04B010BD182370B50446D0E9045686
:10160C0003FB0656AE4215D0204605F11001FFF73C
:10161C00C1FF63680BB9FFF7EFFDE0692969036847
:10162C00DB689847696919B1206A0368DB689847D9
:10163C001835E7E71826D4E9045306FB0356AE42E7
:10164C0004D0284600F041FD1835F8E7002363610B
:10165C0070BD73B50446FFF7CFFD04F12403606A37
:10166C000193FEF76BFF2046FFF7C5FF01A8FFF7BC
:10167C00DCFE606A08B1FEF759FFD4E90453182662
:10168C0006FB0356AE4204D0284600F01EFD18356A
:10169C00F8E72069FFF71EF92068FFF71BF92046D1
:1016AC0002B070BD8842F8B506460C46154627D9DF
:1016BC00904226D20026A2F114056C1AA1F114074F
:1016CC000444AF423DD0A4B12B682360AB88A38007
:1016DC00B5F90630C4E902662661E380AB68A36005
:1016EC00AE60E368EA68E260EB6023692A69226114
:1016FC002B6105F10800FFF72FFE143D143CE0E7C9
:10170C001FD00027AC421CD0A6B123683360A3883D
:10171C00B380B4F90630C6E902773761F380A36869
:10172C00B360A760F368E268F260E3603369226932
:10173C003261236104F10800FFF70EFE14341436F5
:10174C00E0E7F8BDF8B5D0E901539D4204460E46DA
:10175C0017460DDB0135002D006804DDA900FFF7ED
:10176C00C1F818B9F8BDFFF7B5F800202060A560E6
:10177C002568626805EB86019200A2EB8602081DC3
:10178C0001F086F845F82670636801200133636028
:10179C00E8E737B5044600F12403406A0D4601938F
:1017AC00FEF7CCFED4E9003103EB810083421A46EC
:1017BC000AD012680433AA42F8D101A8FFF735FE0B
:1017CC000025284603B030BD2A462046FFF7BAFF55
:1017DC0005460028F1D06368012B01D1FFF700FD0D
:1017EC0001A8FFF722FEECE78842F8B504460D4647
:1017FC00164614D9904213D2A2F11006751AA1F113
:10180C0010072C44B74218D01CB13146204600F0CA
:10181C00D6FC304600F059FC103E103CF2E70CD0E0
:10182C00B5420AD01CB12946204600F0C8FC284617
:10183C0000F04BFC10351034F2E7F8BD70B50E1EFD
:10184C00054611DD3001FFF73DF8044658B1D5E9E6
:10185C00001201EB0212FFF7C7FF2868FFF73AF8F6
:10186C0001202C60AE6070BD0024F6E72DE9F04F2E
:10187C0091460023462297B00391D9F804100446F0
:10188C009942C0E90033C0E90233C0E90433CDE921
:10189C000A3302760C9323DCD9E90057142303FB9B
:1018AC000757AF423BD029460DA800F088FC0DA984
:1018BC0011A80B9E00F083FCDDE90B1399421BDA97
:1018CC000A9B0B9A03EB0616314603EB021206F148
:1018DC001000FFF789FFEEB90B9B01330B9311E05E
:1018EC000AA8FFF7ABFF0028D6D10AA8FFF748FDDE
:1018FC00204617B0BDE8F08F01310AA8FFF79EFF14
:10190C000028DDD111A800F0E0FB0DA800F0DDFBF4
:10191C001435C6E7304611A900F051FCDCE700266F
:10192C004FF0140A3746CDE90D660F96DDE90A2310
:10193C009E4280F297803301D35808930BB901363D
:10194C00F4E70AFB06F3099702930DAD09A908A861
:10195C00FFF7E2FA83460028F1D00146099A28469F
:10196C000DF11F038DF81F70FFF760FB9DF81F80B2
:10197C000190B8F1000F66D1BDF82430CDE9138881
:10198C00ADF848304FF6FF73CDF844B0ADF84A309F
:10199C00CDF85480D5E9013293421ADB03F1010BE7
:1019AC00BBF1000F4ADD0AFB0BF0FEF78BFF049036
:1019BC00002845D0D5E900120AFB0212FFF772FE8F
:1019CC00049B28680493FEF785FF049BC5F808B0B8
:1019DC002B60019BD5F800B00AFB03F36A680BEB94
:1019EC00030101F114000AFB02B204910593FFF705
:1019FC0059FE0499A9B1119A059B4BF80320BDF827
:101A0C0048308B80BDF94A30C1E902770F61CB8039
:101A1C00139B8B60149B1397CB60159B14970B61D6
:101A2C0015976B6801336B6013A8FFF795FCB8F141
:101A3C00000F08D00DA8FFF78FFC56E74346C0E710
:101A4C004FF00108F0E7019B2D680AFB0355089B3A
:101A5C001B782BB9D9F80030029A13441B7CEB800D
:101A6C00083573E72168226062686360A3680B9293
:101A7C000C9A0C93E368A2600D9A0D932369E260B3
:101A8C000E9A0E93636922610F9A0F93039B0A912E
:101A9C0062612376CEE700007FB505460E4604460C
:101AAC00084B114645F8043B01A8FEF78AFB31466A
:101ABC0001AA2846FFF7DAFE01A8FEF729FB20460B
:101ACC0004B070BD1C2B0808F0B50F4687B0384623
:101ADC00254916461D460C9C00F037FF00BBE4B1AF
:101AEC0029466846FFF792FC2420204900F0AFFEFF
:101AFC00054670B1694603A8FEF763FB314603AA9D
:101B0C002846FFF7C9FF03A8FEF702FB184B2C620F
:101B1C002B606846FEF7FCFA2C46204607B0F0BD59
:101B2C003846144900F011FFE0B9002CF5D02946D5
:101B3C006846FFF76BFC24200C4900F088FE054634
:101B4C000028E6D0694603A8FEF73BFB314603AA02
:101B5C002846FFF7A1FF03A8FEF7DAFA064B2C6222
:101B6C002B60D6E70024D8E7EF2B08087C2D08085B
:101B7C00842C0808F32B08086C2C0808014B024A2B
:101B8C001A60704718020020F42A08082DE9F04763
:101B9C00089DD0F8209004460E461746984600F053
:101BAC0049FC81454DD02B79190704D520466A692B
:101BBC005449FFF72BFAB8F1000F0DD05B212046EA
:101BCC00FFF718FA41462046FFF706FA236802226F
:101BDC002046DB684C4998472B79DA0724D5D5F891
:101BEC0008802F21404600F0DCFE08B100F101080E
:101BFC0041462046FFF7F0F92B799B0708D53A218F
:101C0C002046FFF7F7F92046EA684049FFF7FEF94E
:101C1C002A79236812F0040F20464FF00202DB6889
:101C2C0014BF3B493B4998472B7958071DD5296967
:101C3C000B461A4613F8010B60B1202808D119463F
:101C4C00F7E7354800F067F90028ACD0BDE8F0871D
:101C5C002828EED12368521A2046DB68984723685F
:101C6C0004222046DB682D49984700213846FEF7B0
:101C7C008DFD01462046FFF7AFF92368022220466E
:101C8C00DB68244998471EB131462046FFF7A4F97A
:101C9C002B7913F0300F2CD023682149DB680222FA
:101CAC00204698472B79D9060AD523680722204667
:101CBC001C49DB6898472046AA691B49FFF7A6F91F
:101CCC002B799A0611D5DB0605D52368022220460E
:101CDC00DB680F4998472368204614490A22DB68C1
:101CEC0098472046E969FFF777F95D212046FFF711
:101CFC0081F923682046BDE8F0470222DB680C49D5
:101D0C00184700BF042C08080B2C0808CC2B08081B
:101D1C000E2C0808132C080844020020112C08086B
:101D2C00162C0808192C0808212C0808242C080843
:101D3C002F2C08082DE9F04385B0D0F820900546EB
:101D4C000F4690461E460C9C00F074FB814505D155
:101D5C00494800F0E0F8002840F08A804FF0000974
:101D6C002B6A464A01A8019203938DF80890FFF75D
:101D7C001EF849464046FEF709FD804640490122BF
:101D8C0001A8FFF79DF84146FFF719F93FB13D490E
:101D9C00012201A8FFF794F83946FFF710F93EB17C
:101DAC003949012201A8FFF78BF83146FFF707F9F3
:101DBC002379DF070ED5A6682F21304600F0F1FD00
:101DCC0000B1461C3149012201A8FFF779F83146D0
:101DDC00FFF7F5F823799E0707D52D49022201A8B4
:101DEC00FFF76EF8E168FEF7EFFF2379580714D57B
:101DFC00266933461F4613F8012B2AB1202A01D13C
:101E0C001E46F7E7282AF5D10222224901A8FFF73E
:101E1C0057F83146BA1BFFF762F82379190707D533
:101E2C001D49012201A8FFF74BF86169FEF7DEFF9F
:101E3C002379DA0608D5042218490DEB0200FFF7C6
:101E4C003FF8A169FEF7C0FF23799B0607D514491B
:101E5C00062201A8FFF734F8E169FFF7B0F801A8F2
:101E6C00FEF78FFF286A022203680E49DB68984749
:101E7C0005B0BDE8F08300BF44020020542C0808D4
:101E8C00E22B0808322C0808342C0808362C0808D9
:101E9C00382C08083B2C08083E2C0808402C080855
:101EAC00452C08082F2C0808002340681A46FEF71A
:101EBC00A9BC002202214068FEF7B4BC0022406895
:101ECC001146FEF7A7BC002240681146FEF7B2BCD3
:101EDC00002340681A461946FEF7B4BC002340683C
:101EEC001A461946FEF7B6BC00214068FEF7DABC6C
:101EFC0000214068FEF7DEBC0022406881F0010141
:101F0C00FEF7B0BC00224068FEF7BCBC0022406863
:101F1C001146FEF7BFBC002240681146FEF7AABC72
:101F2C0070B51546002686B0044604A8FEF7D0FD11
:101F3C002846039600F01BFD0A4B009681B25B68A5
:101F4C00284603AAFEF7DAFA30B131462046FEF7EE
:101F5C00CFFD204606B070BD204603A9FEF7C0FD9C
:101F6C00F7E700BFDC010020024B034A1A60002295
:101F7C005A60704744020020CC2C0808F8B506467D
:101F8C000D4600248F18BD420CD0336830469B6838
:101F9C0015F8011B9847031E01DB1C44F3E7002CCA
:101FAC0008BF1C462046F8BD70B505460C460846D1
:101FBC0049B100F0DCFC2B68024621462846BDE8FE
:101FCC007040DB68184770BD03689B68184738B5CC
:101FDC000D210546FFF7F8FF0A2104462846FFF7B6
:101FEC00F3FF204438BD0023012A98BF0A2230B5E4
:101FFC008BB00C468DF8243009A92546B4FBF2F4BD
:10200C0004FB1253DBB2092B94BF30333733DBB2F2
:10201C00AA4201F8013DF0D9FFF7C6FF0BB030BD65
:10202C002DE9F04186B000AF05460E46381D14214F
:10203C0014463B60FEF75EFC13280ED82846391D6B
:10204C00FFF7B2FF04461EB12846FFF7C0FF044459
:10205C0020461837BD46BDE8F08100F1080323F097
:10206C000703E846ADEB030D2246411C3B6868466E
:10207C00FEF740FC69462846FFF796FF0446C54626
:10208C00E1E710B50446FEF7B3FC204610BD000096
:10209C0000230348034A0449836000F0D1BB00BF0E
:1020AC004C020020780000208F20080870B5002614
:1020BC0004460D4640F8086FFEF730FA28462570A6
:1020CC00FEF7B4FA2046666070BD10B50446006891
:1020DC00FEF700FC204610BD10B50446006808B1A0
:1020EC00FEF7F8FB0023C4E90133236010BD38B5BB
:1020FC0004460D4600680131FEF7F4FB10B1C4E94B
:10210C000005012038BD10B50368044623B14368AF
:10211C008B4201D3012010BD2046FFF7E8FF0028B9
:10212C00F9D0A368002BF5D122681370F2E770B5D3
:10213C000E46114604461546FFF7E5FF20B920462A
:10214C00FFF7CAFF204670BD2A4631462068A560BD
:10215C0000F090FB00212268A368D154F2E738B557
:10216C00002304460D46C0E900338360037339B184
:10217C00084600F0FCFB294602462046FFF7D7FF35
:10218C00204638BD38B5054600680C4668B16A680B
:10219C008B689A4207D3096800F0E1FBA368AB6037
:1021AC000023A36038BDFEF795FB23682B606368A2
:1021BC006B60A368AB600023C4E90033F1E7002334
:1021CC0010B50446C0E9003383600373FFF7DAFFF0
:1021DC00204610BD884210B50B46044604D0096851
:1021EC0021B19A68FFF7A3FF204610BDFFF774FFDB
:1021FC00FAE7002310B50446C0E90033836003738B
:10220C00FFF7E8FF204610BD0222002010B5084B56
:10221C00084C1A60084B2060A080A071A360FEF7E8
:10222C00C5FA2046BDE81040044A054900F008BB39
:10223C00680200205C0200200000FFFF78000020F4
:10224C0031030808024B1A68024B1A60704700BF32
:10225C00100000206C0200204174704708B5007C0F
:10226C00FEF734FA20EAE07008BD08B5007CFEF7F2
:10227C0005FA20EAE07008BD08B5007CFEF70EFAFE
:10228C0040EAE07008BD08B5007CFEF7FFF940EAB3
:10229C00E07008BD007CFEF709BA70B5467C0446B8
:1022AC000D462EB12946207CBDE87040FEF7DEB904
:1022BC00007CFEF70BFA0028F4DC304670BD000001
:1022CC004FF0000C10B50446084611464FF47A72D4
:1022DC00C4E901C2044A20742260012262741A46C5
:1022EC00FEF7B4F9204610BD242D08080023007C0D
:1022FC00FEF7F4B90022FFF7F9BF007CFEF7AEB988
:10230C00007CFEF7DBB9000038B50D4D2978BFF322
:10231C005B8F11F0010411D12846FDF7C7FE68B19F
:10232C002146084A084B0948FFF7CAFF2846FDF723
:10233C00C2FE074A0749054800F082FA034838BD37
:10234C007002002074020020F80200207C030020A0
:10235C00780000201504080841747047704708B5D0
:10236C000021007CFEF7EAF940EAE07008BD08B5F0
:10237C000121007CFEF7E2F940EAE07008BD08B5E7
:10238C00007CFEF7D3F920EAE07008BD08B5007CAC
:10239C00FEF7C4F920EAE07008BD38B50446007CAD
:1023AC000D46FEF7C3F9002801DC607C28B12946F4
:1023BC00207CFEF7CBF920EAE07038BD007CFEF7FC
:1023CC00CDB910B50446142100F03FFA204610BDDB
:1023DC0010B54FF47A73044608460021C4E9011382
:1023EC00044B20742360012311466374FEF77EF9BD
:1023FC00204610BD542D08080022007CFEF77EB943
:10240C00007CFEF783B9000010B5044614220021AD
:10241C0000F058FA054B20466360054BE36040F230
:10242C00011323818123238210BD00BFC003002030
:10243C00C104002030B50F4D87B001A8FFF7E4FFB1
:10244C002978BFF35B8F11F0010410D12846FDF7FA
:10245C002DFE60B1214601AA0748FFF7B9FF2846B7
:10246C00FDF729FE054A0649034800F0E9F9024840
:10247C0007B030BD900300209803002078000020A6
:10248C006923080810B504461422002100F01AFA3A
:10249C00054B20466360054BE36040F2011323813A
:1024AC008123238210BD00BF42050020430600207B
:1024BC0010B50F4C86B001A8FFF7E4FF2378BFF3EB
:1024CC005B8FDB0710D42046FDF7F0FD60B10121D6
:1024DC0001AA0848FFF77CFF2046FDF7ECFD064AF1
:1024EC000649044800F0ACF9024806B010BD00BF24
:1024FC0094030020AC030020780000206923080816
:10250C00014B1860704700BF1400002008B5174B32
:10251C0043B1FFF78FFF03681B699847002801DD63
:10252C00AFF30080124B43B1FFF7EEFE03681B695B
:10253C009847002801DDAFF300800E4B0BB1FDF77F
:10254C0093FF0D4B0BB1AFF300800C4B0BB1AFF302
:10255C0000800B4B43B1FFF7ABFF03681B69984737
:10256C00002801DDAFF3008008BD00BF00000000B3
:10257C0000000000750408080000000000000000C6
:10258C000000000008B5FFF7C1FFFDF7F7FF014B96
:10259C00186008BDDC0600200248034A0349121AE1
:1025AC0000F068B90040024004400240B02E080818
:1025BC00002307B51A466FF077010093FEF710F968
:1025CC0003B05DF804FB000007B543880A2B08D064
:1025DC00502B0BD1094B1B684BB103B05DF804EBCE
:1025EC001847FFF7E5FF03B05DF804FB00231A461C
:1025FC006FF077010093FEF7F3F8F4E7C8060020BC
:10260C0038B5124C00211248FEF77CF9114D2368A5
:10261C00AB420CBF012200220F4B1A7002D0FFF705
:10262C00BBFF2560FDF79AFF044600F053F90B4BF6
:10263C0013B12046AFF3008000210848FEF7DAF80A
:10264C00BDE8384000210648FEF7C0B80040024003
:10265C000D2508081E1C279AC40600200000000047
:10266C00D525080808B5024B1B681B68019308BDEB
:10267C009C01020808B5024B1B685B68019308BDFE
:10268C009C01020808B5024B1B689B68019308BDAE
:10269C009C01020810B50446806808B1FDF746FF9E
:1026AC00204610BD2E2870B5044601D9002070BDFF
:1026BC00A0F10D03022B0BD9012826D800F080F8CD
:1026CC000021007CFDF7A2FF80F00100C0B2EEE714
:1026DC00134E3178BFF35B8F11F001050FD13046EB
:1026EC00FDF7E4FC58B129460E48FFF7DFFC3046F5
:1026FC00FDF7E1FC0C4A0D490A4800F0A1F8094B22
:10270C001878FDF79BFF0028D0D1123C012C05D87E
:10271C00FFF7FAFD007CFDF7D1FFD5E70120C6E7F6
:10272C00CC060020D006002078000020A126080846
:10273C002E2838B504460D460AD8FF2908D0FFF7D5
:10274C00B1FF28B129462046BDE83840FDF71EBF31
:10275C0038BD38B504460D46FDF720FFFF2810D0D4
:10276C00062804D84D2323FA00F0C30709D42046C9
:10277C00FFF798FF28B129462046BDE83840FDF701
:10278C0015BF38BD002370B5202543801423084E97
:10279C0004460380314685600561284600F059F8EF
:1027AC0031466060284600F054F8E060204670BD69
:1027BC007C2D080810B50446FFF7E4FF204610BD39
:1027CC0030B50F4D87B02978BFF35B8F11F0010442
:1027DC0013D12846FDF76AFC78B101A8FFF7EAFF90
:1027EC00214601AA0748FEF73FF92846FDF763FC8E
:1027FC00054A0649034800F023F8024807B030BDEB
:10280C00E0060020E4060020780000201D0A0808DD
:10281C00002313B5074C1A46194620460093FEF7C1
:10282C0079F92046044A054902B0BDE8104000F091
:10283C0007B800BFF806002078000020990A0808A5
:10284C000B460146184600F007B8FDF722BCFDF711
:10285C001CBCFDF71CBC000010B504460448134614
:10286C0020B10A4602202146AFF3008010BD00BF04
:10287C00000000000A44914200F1FF3300D1704780
:10288C0010B511F8014B914203F8014FF9D110BD6D
:10289C00884210B501EB020402D98442234607D8C2
:1028AC00431EA14208D011F8012B03F8012FF8E7C1
:1028BC00014602448A4200D110BD13F8014D02F8C2
:1028CC00014DF7E703460244934200D1704703F8E9
:1028DC00011BF9E738B50D4B04461D68AB6B7BB992
:1028EC001820FDF7EFFF0A4A0A4BA863C0E9002342
:1028FC00094B012283600B2383810023C0E904234D
:10290C000022AB6B1C615A6138BD00BF1400002063
:10291C000E33CDAB34126DE6ECDE05000346C9B2C6
:10292C00184613F8012B12B18A42F9D170470029CD
:10293C0018BF0020704710B50446FFF7EFFF18B919
:10294C00204600F014F8204410BD10F8012B11F8AB
:10295C00013B012A28BF9A42F7D0D01A7047034690
:10296C0011F8012B03F8012B002AF9D1704703460B
:10297C0013F8012B002AFBD1181A0138704710B537
:10298C006AB10139841810F8013B11F8012F9342F8
:10299C0003D1A04201D0002BF5D1981A10BD1046DE
:1029AC00FCE738B503460C4669B9BDE83840FFF77B
:1029BC00B5BF0546431C21461846FFF7AFFF00285C
:1029CC00F7D1284638BD0025F5E700002DE9F04782
:1029DC008C468646394E60461CF8014BA55D15F0B9
:1029EC000805F8D12D2C33D14FF001089CF800408C
:1029FC0000F1020C002B5CD0102B0CD1302C0AD126
:102A0C009CF8000000F0DF0058284DD110239CF8F2
:102A1C0001400CF1020C002608F10047013FB7FB06
:102A2C00F3F9304603FB197AA4F13005092D18D8B7
:102A3C002C46A34224DD751C07D081451DD301D142
:102A4C00A2451ADB012600FB03401CF8014BEBE707
:102A5C002B2C08BF9CF80040A84608BF00F1020CC4
:102A6C00C8E7A4F14105192D01D8373CE1E7A4F1E1
:102A7C006105192D04D8573CDBE74FF0FF36E4E72E
:102A8C00731C06D122233846CEF8003042B9BDE87B
:102A9C00F087B8F1000F00D04042002AF7D00EB1F9
:102AAC000CF1FF311160F2E73024002BB3D1082375
:102ABC00B1E7302CA4D00A23ADE700BF7E2D080867
:102ACC0013460A46014602480068FFF77FBF00BF65
:102ADC00140000201D0008085D0008088500080887
:102AEC008900080800000000617070006170702E91
:102AFC00726F626F745F7374617465006170702EB5
:102B0C00737069666673000000000000000000002E
:102B1C000000000000000000A5000808C90008081B
:102B2C000000000000000000D5000808090108089A
:102B3C00991B0808CB00080853657475700A00428D
:102B4C006C696E6B210A00000000000000000000A0
:102B5C00C1090808B7090808AD09080827090808B9
:102B6C00A109080895090808F51E0808FD1E0808A3
:102B7C008909080881090808770908086D090808F7
:102B8C003109080800000000000000001D0A0808B8
:102B9C00670A08083F0A08081F0A0808470A0808B5
:102BAC004F0A0808570A08085F0A080800000000C6
:102BBC0000000000A90A0808990A08089B0A0808DE
:102BCC0025640025750075253034780062617564C4
:102BDC000053657269616C005553425365726961AB
:102BEC006C31004A534F4E53747265616D4C6F6774
:102BFC0048616E646C657200253031307520005D63
:102C0C0020002C200028293A2000205B00636F64F0
:102C1C0065203D200025690064657461696C732032
:102C2C003D20000D0A006D00630066006C6E0066AE
:102C3C006E007400636F64650064657461696C0098
:102C4C000000000000000000230F0808490F0808CE
:102C5C00090F0808670B08080000000000000000BE
:102C6C00C5130808DD130808991B0808CB000808D1
:102C7C000000000000000000F1130808051408080B
:102C8C00411D0808110F080800000000000000009A
:102C9C00210F0808570F0808D51A0808130F080841
:102CAC0000000000000000001F0F0808650F080856
:102CBC00ED120808810F0808000000000000000059
:102CCC00B51E0808BF1E0808C91E0808D31E080830
:102CDC00DD1E0808E91E0808F51E0808FD1E080878
:102CEC00051F0808111F0808191F0808231F0808CA
:102CFC002D1F080825592D256D2D25645425483A7E
:102D0C00254D3A2553257A0061736374696D65000E
:102D1C000000000000000000150408081704080853
:102D2C00A7220808891F0808772208089322080898
:102D3C0085220808A12208086522080869220808CB
:102D4C00000000000000000069230808CF230808D9
:102D5C00A7230808891F0808992308086B2308086B
:102D6C007B230808C92308088B2308086523080857
:102D7C00000020202020202020202028282828285F
:102D8C002020202020202020202020202020202037
:102D9C00202088101010101010101010101010108F
:102DAC00101004040404040404040404101010108F
:102DBC00101010414141414141010101010101014A
:102DCC0001010101010101010101010101101010BA
:102DDC00101010424242424242020202020202021D
:102DEC00020202020202020202020202021010108D
:102DFC001020000000000000000000000000000097
:102E0C0000000000000000000000000000000000B6
:102E1C0000000000000000000000000000000000A6
:102E2C000000000000000000000000000000000096
:102E3C000000000000000000000000000000000086
:102E4C000000000000000000000000000000000076
:102E5C000000000000000000000000000000000066
:102E6C000000000000000000000000000000000056
:102E7C00000000001D020808C5030808C904080862
:102E8C00E1040808CD090808891B0808751F080803
:102E9C009D20080815220808512208081D2808083A
:042EAC000000000022
:042EB000000000001E
:102EB40001000000070000009C2C0808B42C08083E
:102EC400142D080818000020000000000000000075
:102ED40000000000000000000000000000000000EE
:102EE40000000000000000000000000000000000DE
:102EF40000000000000000000000000000000000CE
:102F040000000000000000000000000000000000BD
:102F140000000000000000000000000000000000AD
:082F24000000000000000000A5
:102F2C00FFFFFFFF483110000000010203040506FB
:102F3C000708090A0B0C0D0E0F101112131415169D
:0C2F4C001718191A1B1C1D1E1F2028003E
:042F58007856341261
:040000050808001CCB
:00000001FF
